:020000040800F2
:10000000D80700209D0100082F2E00084521000878
:100010002D2E000859080008793000080000000063
:10002000000000000000000000000000332E000867
:10003000F108000800000000312E0008352E0008ED
:10004000B7010008B7010008B7010008B7010008B0
:10005000B7010008B7010008B7010008B7010008A0
:10006000B7010008B7010008B7010008B701000890
:10007000B7010008B7010008B7010008B701000880
:100080005D08000869080008B7010008B70100080A
:10009000B7010008B7010008B7010008B701000860
:1000A000B7010008B7010008B7010008B701000850
:1000B000B7010008B7010008B70100085521000882
:1000C00049210008B7010008B7010008B70100087E
:1000D000B7010008B7010008B7010008B701000820
:1000E000B7010008B7010008B7010008B701000810
:1000F000B7010008B7010008B7010008B701000800
:10010000B7010008B7010008B7010008B7010008EF
:10011000B7010008B7010008B7010008B7010008DF
:10012000B7010008B7010008B7010008B7010008CF
:10013000B7010008B7010008B7010008B7010008BF
:10014000B7010008B7010008B7010008B7010008AF
:10015000B7010008B7010008B7010008B70100089F
:10016000B7010008B7010008B7010008B70100088F
:10017000B7010008B7010008B7010008000000003F
:10018000B7010008B7010008DFF80CD000F032FB1F
:10019000004800478D360008D807002006488047F1
:1001A00006480047FEE7FEE7FEE7FEE7FEE7FEE75C
:1001B000FEE7FEE7FEE7FEE7D12E00088901000812
:1001C0002DE9F05F0546002092469B46884606468C
:1001D000814640241BE0284641464746224600F01F
:1001E00007F953465A46C01A914110D31146184692
:1001F000224600F0EEF82D1A67EB01084F46224622
:100200000120002100F0E5F817EB00094E41201E07
:10021000A4F10104DFDC484631462A464346BDE8E6
:10022000F09FD2B201E000F8012B491EFBD27047CB
:100230000022F6E710B513460A4604461946FFF7B2
:10024000F0FF204610BD2DE9F04791460F4680464D
:100250000446002614F8015B2DB100F0D9F80068BF
:10026000405DC007F6D12B2D02D02D2D18D0641E75
:100270004A463946204600F0CFF827B13968A142F6
:1002800001D1C7F8008071054FF002040BD5404240
:10029000002803DD02F002FF0460A007BDE8F0873C
:1002A00046F48066E4E70028F8DA02F0F7FE04601E
:1002B0006FF00040F2E72DE9F04D81EA030404F00D
:1002C000004B21F0004514464FF0000A23F0004196
:1002D00050EA050220D054EA01021DD0C5F30A57A6
:1002E0000246C5F31303C1F31300C1F30A5640F4E9
:1002F000801543F48013A7EB0608101BD64608F2BE
:10030000FD3873EB050002D308F1010801E09218F3
:100310005B41B8F1000F03DA00200146BDE8F08D23
:1003200000204FF48011064684460EE0171B73EB45
:10033000050705D3121B63EB050306434CEA010CCA
:1003400049084FEA300092185B4150EA0107EDD1AD
:1003500052EA030012D082EA040083EA050108434E
:1003600005D0101BAB4106D20122002306E000227B
:100370004FF0004302E06FF0010253101AEB060049
:100380004CEB085110EB0A0041EB0B01BDE8F04DBE
:1003900000F091B870B5C1F30A5201F00045002495
:1003A000C1F3130140F2FF3341F480119A4201DAA4
:1003B000002070BD40F233439A42A2F2334203DC84
:1003C000524200F015F800E090402C43F1D040423A
:1003D00070BD202A04DB203A00FA02F100207047A9
:1003E0009140C2F1200320FA03F319439040704773
:1003F000202A04DB203A21FA02F00021704721FA7A
:1004000002F3D040C2F120029140084319467047E0
:1004100000487047943900082DE9F05F8246007863
:10042000002715468B460AF10104B946302801D051
:100430009DB113E014F8010B0127782803D0582848
:1004400001D045B10AE00DB1102D07D100271025CC
:1004500014F8010B02E0082500E00A250026B0464A
:100460000EE005FB080005FB06F1012701EB104635
:100470001FFA80F8B6F5803F00D3B94614F8010B97
:10048000294600F0DBF90028EBDABBF1000F05D0BC
:100490000FB1641E00E05446CBF80040B9F1000FE4
:1004A00006D002F0FBFD02210160C81EBDE8F09FEE
:1004B00048EA0640FAE710B5141E73F1000408DAA2
:1004C000401C41F1000192185B411A4301D120F018
:1004D000010010BD2DE9F04D92469B4611B1B1FAD5
:1004E00081F202E0B0FA80F220329046FFF771FF0D
:1004F00004460F4640EA0A0041EA0B0153465A46B9
:10050000084313D0114653EA010019D0C8F1400244
:100510005046FFF76DFF05460E4650465946424687
:10052000FFF757FF084305D0012004E02046394675
:10053000BDE8F08D0020054346EAE0762C433743C2
:100540000A986305E40AA0EB08000022FD0A44EAC9
:1005500047540A3002D500200146E9E70105101989
:100560006941DDE9084500196941BDE8F04DA2E7A0
:100570002DE9FE4F804681EA0300C00F0C46009033
:1005800021F0004123F00045B8EB0200A94105D25B
:100590004046214690461C460B46024623F000404A
:1005A000104347D0270DC7F30A00C3F30A51029046
:1005B000401A019040286BDAC3F3130040F4801B0B
:1005C0000098924620B10023D2EB030A63EB0B0B99
:1005D00001985946C0F140025046FFF7FAFE064620
:1005E0000D4650465946019A00F016F910EB0800E6
:1005F0006141002487EA115284EAE7731A4340D02C
:10060000009A62B3019A012A4FEA075215DC001BD7
:1006100061EB02014FF0004202EA0752CDE90042CD
:10062000001C41F5801132462B46FFF753FF03B003
:10063000BDE8F08F40462146F9E7001B61EB02015F
:10064000001C41F5801300185B412018A2F500172B
:1006500047EB030140EAD570B6196D4111E06D0812
:100660004FEA360645EAC0754FEA0752001B61EBB8
:100670000201001C41F5801149084FEA30000019C1
:10068000514132462B4603B0BDE8F04FFFF713BF90
:100690000098012240000023D0EB020263EBE073DC
:1006A000009821464FEAE074B8EB000061EB0401CA
:1006B000E9E783F000435BE781F0004158E72DE96B
:1006C000FE4F81EA030404F0004421F0004100944D
:1006D0004FF0000B23F0004350EA01045ED052EAD1
:1006E00003045BD0C3F30A54C1F30A552C44A4F2AB
:1006F000F3340194A0FB0254C1F3130141F48011BF
:10070000C3F3130343F4801301FB024400FB034EC5
:10071000840A970A44EA815447EA8357A4FB07688E
:1007200002958D0A05FB07854FEA932C04FB0C54B8
:100730002705029D4FEA065847EA1637B5EB08052C
:100740006EEB070C870E920E47EA811742EA83127E
:10075000A7FB0201B6EB0B0164EB00042B0D43EA8F
:100760000C335E1844EB1C50DA465146E7FB02019D
:10077000C5F313044FEA0B3343EA14534FEA043230
:10078000019C43EA0603A4F10C040294009CCDE909
:1007900000B4FFF79FFE03B0BDE8F08F00200146D4
:1007A000F9E70EB5C10F80EAE0700844CA070021DE
:1007B00040F233438DE80E000A460B46FFF78AFEEF
:1007C00003B000BD30B5041E71F1000404DB4FF02E
:1007D0000044404264EB0101141E73F1000405DB88
:1007E0001C464FF00043524263EB04038B4208BFA8
:1007F000824230BD064C074D06E0E06840F0010340
:1008000094E8070098471034AC42F6D3FFF7C0FCD9
:1008100098390008B8390008202A06DBCB17203A9F
:1008200041FA02F043EAE07306E041FA02F3D040F5
:10083000C2F1200291400843194670473A2800D27D
:10084000303820F02002412A01D3A2F1370088423B
:1008500001D34FF0FF307047FEE70000014800F081
:1008600067B9000014010020014800F061B90000E0
:100870007401002001681823CAB2103AB2FBF3F2E7
:10088000054B6FF30901032A9B5CC36500D9091D61
:100890008165084670470000B038000810B5014671
:1008A00000208B698A6A4FF0C07453B1B3F5005FC2
:1008B00015D072B1012A0CD0022A0AD0032A09D11C
:1008C00004E01AB1012A06D0022A03D1C96AC9017B
:1008D00000D5012010BDC96AA142FAD010BD002A7E
:1008E000F7D0012AF2D0022AF3D0032AF3D010BDA8
:1008F0007047000010B504462DED028B94B09FEDBB
:10090000190B02F0D1FBB0EE401AF0EE601AB0EE17
:10091000418AF0EE618A9FED150B02F0C5FB53ECA6
:10092000182B51EC100BFFF7C6FCFFF733FD84408A
:10093000A4B24722402103A8FFF773FC4FF47A7258
:10094000402103A88DE8070002232246A021094880
:1009500000F07CFE052000F025FA14B0BDEC028BFF
:1009600010BD00000000000000000040000000007A
:10097000000050401C0000202DE9FF4F98462DED4F
:10098000028B85B0894604469FED260B02F08CFB56
:10099000B0EE401AF0EE601AB0EE418AF0EE618AD5
:1009A0009FED220B02F080FB53EC182B51EC100B47
:1009B000FFF781FCFFF7EEFC834608EB090004EB30
:1009C0009010001B401C00261FFA80FA354622E0DA
:1009D00004FA0BF040EA090080B203904946404611
:1009E00002F00CFE074609984FF47A713044CDE9C5
:1009F000000702910223A0210E48039A00F02AFD6D
:100A0000A8EB07001FFA80F8641CF019A4B24FF09D
:100A1000000986B26D1C5545DADB05B0BDEC028BD2
:100A2000BDE8FF8F00000000000000400000000053
:100A3000000050401C0000202DE9FF4F98462DED8E
:100A4000028B85B0894604469FED280B02F02CFBF3
:100A5000B0EE401AF0EE601AB0EE418AF0EE618A14
:100A60009FED240B02F020FB53EC182B51EC100BE4
:100A7000FFF721FCFFF78EFC834608EB090004EB2F
:100A80009010001B401C00261FFA80FA354625E016
:100A900004FA0BF040EA090080B203904946404650
:100AA00002F0ACFD074609984FF47A713044CDE965
:100AB000000702910223A0211048039A00F0C6FD0E
:100AC000A8EB07001FFA80F8F019641C86B2A4B2E4
:100AD0004FF00009052000F065F96D1C5545D7DB86
:100AE00005B0BDEC028BBDE8FF8F000000000000E8
:100AF0000000004000000000000050401C000020EA
:100B000072B6FEE790F83510022903D080214165C6
:100B100001207047052180F835100068016821F038
:100B2000010101600020704790F835007047000017
:100B30002DE9F84304464FF00009CDF800906348D2
:100B40004FF41651A56D0068B0FBF1F72E6894F8CC
:100B50005C10082000FA01F131420FD021680A68C8
:100B600052070BD50A6822F004020A6094F85C1060
:100B70008840A860606D40F00100606594F85C10EA
:100B80004FF0010808FA01F0304208D021684969A5
:100B9000090604D5A860606D40F00200606594F815
:100BA0005C1004208840304208D021680968890719
:100BB00004D5A860606D40F00400606594F85C1096
:100BC00010208840304218D021680968090714D5E0
:100BD000A86020680168490304D50068000308D5AF
:100BE000A16C07E00168C90503D4016821F0080180
:100BF0000160216C09B12046884794F85C102020E0
:100C00008840304231D021680968C9062DD5A860D6
:100C100094F8350005282068016806D0490347D5B7
:100C2000006800031DD4616C1CE021F01601016016
:100C30002068416921F080014161206C08B9A06CF5
:100C400020B12068016821F00801016094F85C106F
:100C50003F208840A86084F8349084F83580216D66
:100C60001FE0E16B09B120468847606D00282BD05A
:100C7000606DC00714D0052084F835002068016835
:100C800021F0010101600098401C0090B84203D897
:100C900020680068C007F6D184F8349084F8358065
:100CA000E16C002910D001B02046BDE8F0430847B0
:100CB0000168C905D5D4016821F01001016084F8EC
:100CC000349084F83580CCE7BDE8F8830C00002030
:100CD0002DE9F041044600F05FF906465CB10025BD
:100CE00084F83450022084F835002068016821F02F
:100CF000010101600DE00120BDE8F08100F04CF938
:100D0000801B052805D920206065032084F8350064
:100D1000F2E720680068C007F0D122681168204817
:100D20000140D4E901031843D4E90336334318439F
:100D300063691843A3691843E3691843236A184396
:100D40000843616A042903D1D4E90B13194308430A
:100D5000106020684069666A20F0070130460E4343
:100D6000012704280CD1A06A0643E06A40B120465E
:100D7000FFF794FD20B14020606584F83570BAE734
:100D8000206846612046FFF775FD94F85C203F21FE
:100D900091408160656584F835700020ACE7000003
:100DA0003F8010F070B5044600F0F6F80546601C70
:100DB00002D004480078044400F0EEF8401BA04242
:100DC000FAD370BD000000202DE9F84F00224FF04B
:100DD000010803254FF00F0E0B6808FA02F42340B8
:100DE000A3426ED14E68012E05D0022E03D0112EE3
:100DF00001D0122E12D186684FEA420C05FA0CF788
:100E0000BE43CF6807FA0CF7374387604668A643AE
:100E10000C79C4F30014944034434460C66857000E
:100E200005FA07FC8C6826EA0C06BC403443C46013
:100E30004C68022C01D0122C13D1D40800EB84048E
:100E4000A346D4F8209054074FEAD46A0EFA0AF663
:100E500029EA06090E6906FA0AF646EA0906CBF8F7
:100E6000206006680C7926EA0C0604F00304BC40F6
:100E7000344304604C68E40065D5364C266846F47B
:100E800080462660246822F0030604F4804400941F
:100E9000314C3444A446D4F808489607370F0EFA6C
:100EA00007F6B4432D4EB04201D1002624E02C4E6B
:100EB000B04201D101261FE02A4EB04202D10226E3
:100EC0001AE040E0284EB04201D1032614E0274E3C
:100ED000B04201D104260FE0254EB04201D10526D3
:100EE0000AE0244EB04201D1062605E0224EB0426F
:100EF00001D1072600E00826BE402643CCF808684A
:100F00001E4E34684F689C43FF0300D51C43346079
:100F10001A4C241D26684F689E43BF0300D51E430C
:100F20002660164E083634684F689C43FF0200D591
:100F30001C433460114E0C3634684F689C43BF022A
:100F400000D51C433460521C102AFFF445AFBDE8A5
:100F5000F88F000044380240003001400000024099
:100F60000004024000080240000C02400010024051
:100F70000014024000180240001C0240003C0140E6
:100F8000426931EA020200D10904816170470AB165
:100F9000816170470904FBE70148806870470000E1
:100FA00000000020704770472DE9F04101680446B9
:100FB0004A694E6890F83E000025D743FA0506D4EA
:100FC000F243D20503D46FF4807201254A61B9055A
:100FD00008D4F143C90505D422686FF4007145F0C7
:100FE00002055161790525D4F143C90522D4638DE9
:100FF00094F83D10226B202808D13BB9212910D04C
:1010000029290ED0282901D1212A0AD022686FF47B
:101010008061516145F00405102806D0402804D0B5
:1010200008E0204601F0D4FC04E02068016841F4A7
:1010300000710160380508D4F043C00505D421686B
:101040006FF4006045F008054861002D07D0206C62
:10105000284320642046BDE8F04101F0C5B8BDE852
:10106000F0812DE9F041026800245168C56A90F8CA
:101070003E3090F83D60102B1CD0402B1AD0036CF2
:10108000002B7ED053694FF02805DB439F0779D4AE
:10109000CF43BF0576D4016C01B1946990F83D301F
:1010A00000219D430B467FD0C91E516180F83C3022
:1010B000BDE8F081946953694FF42A07DB435FEA86
:1010C000C37C4FF02A4604D0BD42F1D0B542EFD0E8
:1010D00010E0CD43AD050DD4C16AB94201D1012163
:1010E00003E0C16AB14201D10821C162BDE8F0410B
:1010F00001F020BB1D0716D4CD43AD0513D4416CC0
:10110000C9B21161416B11B9826B002AD0D0C96B91
:1011100019B9816BC96B0029CAD00068416841F4D4
:1011200000614160C4E79D0706D4CD43AD0503D4FB
:10113000BDE8F04101F072BAE443526864074FEA37
:10114000025215D4002AB3DB1A0608D4CA4352054A
:1011500005D45A0705D5BDE8F04101F003BA5A0796
:10116000A6D4C9438905A3D4BDE8F04101F0B0B9C4
:10117000002A9DDB5A060CD4CA43520509D45A07EB
:1011800002E00FE023E00FE005D5BDE8F04101F0FB
:1011900055B95A078CD4C943890589D4BDE8F041B3
:1011A00001F0E3B894696DE7556825F480655560F2
:1011B000E243540700D50121120601D5828900E0DF
:1011C000028B80F83C3092B2FFF7EDFE70E7DC0650
:1011D00006D4CC43A40503D4BDE8F04101F03ABCE9
:1011E000212E27D0292E25D05C0655D4CC4364056A
:1011F00052D45B0752D590F83D10438D002B91D00F
:101200001269436A1A70426A521C4262428D521E2F
:101210004285428D002A85D12A29D7D101684A68A2
:1012200022F480624A602221016380F83D5000F080
:10123000E9FA3DE71C0623D4CC43640520D45B07C0
:1012400020D590F83D10438D002BBFD0436A1B780A
:101250001361426A521C4262428D521E4285428D87
:10126000002AB3D12929B1D101684A6822F48062E9
:101270004A602121016380F83D5000F0C4FA17E76D
:101280005B07A3D4C9438905A0D4418D00299DD013
:10129000416A097811610AE05B0797D4C94389055F
:1012A00094D4418D002991D01169426A1170416A2C
:1012B000491C4162418D491E4185F9E67047000095
:1012C00070B5040025D094F83D00002520B984F8BD
:1012D0003C50204600F052FA242084F83D0020685B
:1012E000016821F0010101602068016841F40041BA
:1012F00001602068016821F40041016000F0B8FB42
:101300004D4A6168914201D84C4900E04C498842FD
:1013100001D2012070BD4B492368B0FBF1F15E683A
:1013200026F03F060E435E606368934206D94FF491
:10133000967359434FF47A73B1FBF3F12368491C58
:101340001E6A26F03F06314319626168914210D847
:101350004900401EB0FBF1F2521CC2F30B02042AFA
:1013600001D2042022E0B0FBF1F0401CC0F30B00DE
:101370001CE0A268F2B301EBC10303EB0116431EAC
:10138000B3FBF6F35B1C43F480431B0549D092B3D7
:1013900001EBC10202EB0111401EB0FBF1F0401C59
:1013A000C0F30B0040F4804040F400402168CA695B
:1013B0004CF6FF739A431043C861D4E90710014308
:1013C0002068026822F0C00211430160D4E90301E1
:1013D00001432068826848F2FF339A4311438160D9
:1013E000D4E9050108432168CA6822F0FF021043CE
:1013F000C86001E00EE016E02068016841F00101DC
:1014000001602564202084F83D00256384F83E5067
:10141000002070BD01EB4106431EB3FBF6F35B1CDD
:10142000B3E70120C2E701EB4101401EB0FBF1F040
:10143000401CC0F30B00B7E7A086010080841E00AB
:1014400000093D0040420F007047704770477047E9
:10145000704700002DE9FF4F83B09A46DDE91197F0
:1014600093460446DDF84080FFF796FD054694F864
:101470003D00202870D11923012271492046009592
:1014800001F0BCFB0028F5D194F83C00012863D0A2
:10149000012084F83C0020680168C90703D1016875
:1014A00041F0010101602068016821F400610160E0
:1014B000222084F83D00402084F83E000026266467
:1014C000C4F82480A4F82A90608D20855D48E062ED
:1014D000CDE9007553465A462046049901F0A6F915
:1014E00000287CD1208DD0B1012821D0022820688D
:1014F00024D0416980690090208D032869D8012893
:101500002BD0514902283B464FF00002009559D09C
:101510008846204601F072FB002860D13CE020683C
:10152000416981690091016841F40071016077E0CF
:101530002068016821F480610160F0E7016821F40E
:10154000806101602068016841F4006101602068E9
:1015500041698069009063E06FE02A463946204681
:1015600001F0CBFB98BB20680069616A08704EE00F
:101570002068016841F40071016020680069616AB7
:101580000870606A401C6062218D491E2185618D52
:10159000491E6185216838E02068016821F4806176
:1015A000016020680069616A0870606A401C6062BE
:1015B000208D401E2085608D401E60853B460022A8
:1015C00041460095204601F019FB00B9D0E706E03E
:1015D000FFE72A463946204601F08FFB18B101206B
:1015E00007B0BDE8F08F20680069616A0870606A22
:1015F000401C6062218D491E2185618D491E6185D7
:1016000021684A69D24352070AD409690170606AA5
:10161000401C6062208D401E2085608D401E6085CC
:10162000208D00287FF468AF202084F83D0084F8E6
:101630003E6084F83C600020D2E70220D0E7000042
:10164000020010000000FFFF040001002DE9FF4F21
:1016500083B09A46DDE9119793460446DDF8408051
:10166000FFF79AFC054694F83D0020287FD1192306
:10167000012240492046009501F0C0FA002876D1A9
:1016800094F83C00012872D0012084F83C002068C6
:101690000168C90703D1016841F0010101602068B8
:1016A000016821F400610160212084F83D004020A0
:1016B00084F83E0000262664C4F82480A4F82A900A
:1016C000608D20852C48E062CDE9007553465A466E
:1016D0002046049901F028F970B930E02A463946CD
:1016E000204601F03DFB58B1206C042804D120684D
:1016F000016841F400710160012007B0BDE8F08F7E
:10170000606A216800780861606A401C6062218D0F
:10171000491E89B22185628D521E628522685369F5
:10172000DB435B070BD469B100781061606A401C31
:101730006062208D401E2085608D401E6085208D5A
:101740000028CBD12A463946204601F031FA00283C
:10175000CAD154F83D0B016841F4007101602020AA
:1017600004F81E09E67766770020C6E7FFE7022047
:10177000C3E70000020010000000FFFF10B586B0B4
:10178000044614216846FEF753FD1B492068884231
:1017900030D11A48016841F00201016000686946D1
:1017A00000F002000590C02000901220019001205E
:1017B000029002200390042004901148FFF704FBDC
:1017C0000E481030016841F40011016000680022E9
:1017D00000F40010059011461F2000F07DF81F2036
:1017E00000F06CF800221146202000F075F820204F
:1017F00000F064F806B010BD0054004030380240DC
:101800000004024070477047024881680278114422
:1018100081607047000000200B4810B5016841F45A
:1018200000710160016841F480610160016841F468
:1018300080710160032000F06FF8002000F006F8CE
:1018400000F024F8002010BD003C024070B50D4DA2
:1018500004464FF47A712878B1FBF0F00A49096820
:10186000B1FBF0F000F002FB48B9102C07D20022C7
:101870002146501E00F030F800206C6070BD012041
:1018800070BD0000000000200C0000200A4808B5D0
:10189000016841F480410160006800F480400090DC
:1018A0000548001F016841F080510160006800F0A8
:1018B0008050009008BD000044380240002809DB39
:1018C00000F01F02012191404009800000F1E0205A
:1018D000C0F8001170470000F0B40E4B1B680C46B6
:1018E000C3F30223C3F10705042D00D90425191DF4
:1018F000072901D2002300E0DB1E012606FA05F1CC
:10190000491E214099409E40761E16403143F0BC4E
:1019100001F0B3BB0CED00E0064900F007020868D7
:101920004FF6FF03184040EA0220034A10430860C4
:10193000704700000CED00E00000FA052DE9F047CB
:101940000E46050065D0DFF81481D8F80000F7B224
:1019500000F00F00B04207D288F80070D8F80000FD
:1019600000F00F00B04254D128683D4C810712D5D9
:10197000400703D5206840F4E05020602878000735
:1019800003D5206840F4604020602068A96820F0FA
:10199000F000084320602878C0072DD030496868DF
:1019A0000839012812D0022813D0032811D0096861
:1019B000890700292DDA216821F003010143216004
:1019C000FFF7EAFA814641F2883A0EE00968890396
:1019D000EFE709688901ECE7FFF7DEFAA0EB090100
:1019E000514502D90320BDE8F0872068696800F0FE
:1019F0000C00B0EB810FEFD1D8F80010404601F099
:101A00000F01B14207D90770006800F00F00B04223
:101A100001D00120E7E72878400705D52068E9686C
:101A200020F4E050084320602878000706D520689D
:101A3000296920F4604040EAC100206000F038F8D5
:101A40002168084AC1F30311515CC8400649086087
:101A500006480068FFF7FAFE0020C4E7003C024099
:101A600008380240B83800080C00002004000020AC
:101A70000448054900680968044AC1F38221515CA1
:101A8000C84070470C00002008380240C8380008E1
:101A90000448054900680968044AC1F34231515CB1
:101AA000C84070470C00002008380240C8380008C1
:101AB000154810B5006810F00C02144813D04110FE
:101AC000042A0FD0082A0ED10F4C241F2268236845
:101AD00002F03F025B0207D52068C0F38810A0FB2C
:101AE000010106E0084610BD2168C1F38811A1FB81
:101AF00000010023FEF764FB2168C1F30141491C8A
:101B00004900B0FBF1F010BD083802400024F40099
:101B10002DE9F84F04006ED02078DFF83C93C00721
:101B2000A9F104054AD009F104000168C1F381015B
:101B3000012908D00068C0F3810002280AD1D9F831
:101B40000000400206D52868800337D56068002869
:101B5000E1D033E06068B0F5803F10D0B0F5A02F41
:101B6000286810D020F480302860286820F4802075
:101B700028606068A8B1FFF70FFA06460DE02868F4
:101B800040F48030F4E740F480202860F7E700BF9D
:101B9000FFF702FA801B642873D828688003F7D502
:101BA0000CE0FFF7F9F9064605E000BFFFF7F4F98E
:101BB000801B6428F0D828688003F7D42078DFF8E9
:101BC0009C8280074FF0000A3ED5A348001D0168A3
:101BD00011F00C0F08D00068C0F3810002280BD16F
:101BE000D9F80000400207D42868800716D5E068BD
:101BF000012800D112E02BE1E068B8B10120C8F85B
:101C00000000FFF7C9F9064605E000BFFFF7C4F979
:101C1000801B0228C0D828688007F7D5286821696A
:101C200020F0F80040EAC10028600DE0C8F800A0EC
:101C3000FFF7B2F9064604E0FFF7AEF9801B022871
:101C40001FD828688007F7D42078000722D5824E55
:101C500083486169703671B101210160FFF79CF919
:101C6000074604E0FFF798F9C01B022809D830683E
:101C70008007F7D50EE0C0F800A0FFF78DF9074602
:101C800005E082E0FFF788F9C01B02287DD83068A4
:101C90008007F7D42078400768D5DFF8BCB100276B
:101CA0000BF13C0BDBF80000C0000BD4DBF800109C
:101CB00041F08051CBF80010DBF80000012700F064
:101CC00080500090674E3068C00510D4306840F4F2
:101CD00080703060FFF760F9009005E0FFF75CF975
:101CE0000099401A022850D83068C005F6D55A4EDF
:101CF000A0686C3601280FD00528306810D020F07D
:101D000001003060306820F004003060A068B8B195
:101D1000FFF742F900900FE0306840F00100F4E76F
:101D200040F004003060F7E7FFF736F90099411AF8
:101D300041F28830814266D830688007F4D50EE0E1
:101D4000FFF72AF9009007E0FFF726F90099411AFA
:101D500041F28830814256D830688007F4D42FB1E0
:101D6000DBF8001021F08051CBF80010A069C8B357
:101D70003949091D0968C1F3810102294AD00228A5
:101D8000504607D0C8F8600000E03CE0FFF704F9D7
:101D900004463BE04746C8F86000FFF7FDF80646FA
:101DA00005E000BFFFF7F8F8801B02282BD8286851
:101DB0008001F7D4D4E907010843A16A2A4A4908F7
:101DC00002EB0141626A41EA8211084394F82C1047
:101DD00040EA0161C9F8001001203866FFF7DCF81D
:101DE000044606E036E000BFFFF7D6F8001B0228E5
:101DF00009D828688001F7D52CE000BFFFF7CCF8A0
:101E0000001B022802D90320BDE8F88F2868800152
:101E1000F4D41FE00128F7D0D9F80000E26900F4FB
:101E20008001914214D1226A00F03F0191420FD10A
:101E300047F6C071626A0140914209D1A26A00F47A
:101E40004031914204D1E16A00F07060884201D0D3
:101E50000120D9E70020D7E70438024000004742BC
:101E6000800E4742007000400000FFFF10B5401E8A
:101E7000B0F1807F01D3012010BD4FF0E0246061FC
:101E80000F21601701F0F9F80020A0610720206100
:101E9000002010BD70B5040004D094F8390000256E
:101EA00010B106E0012070BD84F83850204600F0E3
:101EB00023F8242084F839002068C16821F40051F7
:101EC000C160204601F012F82068016921F49041B8
:101ED00001612068416921F02A0141612068C168DF
:101EE00041F40051C160E563202084F8390084F892
:101EF0003A00002070BD00002DE9F04186B0064692
:101F000014216846FEF794F92A49306888424ED178
:101F100029480024016841F400310160006800F4A0
:101F20000030059024481038016841F0010101603B
:101F30000068012100F0010005900C2000900220B3
:101F4000CDE9010103900720049069461B48FEF784
:101F50003BFF1C4D1A484FF000672860C5E901742B
:101F60004FF48068C5E903486C61AC61EC612C6298
:101F700028466C62FEF7ACFE08B1FEF7C1FD756342
:101F8000AE630F48104D1830E5E802074020A5E881
:101F900011010D4845F81449AC61EC612C626C628A
:101FA000FEF796FE08B1FEF7ABFD3563AE6306B0F3
:101FB000BDE8F0810044004040380240000002408B
:101FC0008860024014010020740100202DE9F843CC
:101FD000044690F83A00994616460D46202852D1FC
:101FE000BDB1B6B194F8380001284CD0012084F876
:101FF00038000027E763222084F83A002C34FEF7EB
:10200000CBFF24F8026B804624F80A6B04F8387979
:1020100031E00120BDE8F883E08D401EE085A06836
:102020004346B0F5805F4FF000024FF0200120469C
:10203000CDF8009004D000F0EDFF98B10320E9E75F
:1020400000F0E8FF0028F9D12069002820684068E6
:1020500003D0C1B225F8011B0DE0C0F3080125F83B
:10206000021B08E0206900282068406801D000F0C9
:102070007F0005F8010BE08D0028CDD1202084F8E9
:102080003A000020C6E70220C4E72DE9F8430446E1
:1020900090F839001F4616460D46202850D1B5B19C
:1020A000AEB194F8380001284AD0012084F83800F5
:1020B0004FF00008C4F83C80212084F83900FEF776
:1020C0006BFFA6848146E68484F8388026E00120F0
:1020D000BDE8F883E08C401EE084A0684B46B0F574
:1020E000805F4FF000024FF080012046009703D040
:1020F00000F090FFE8B90DE000F08CFFC8B9288827
:102100002168C0F308004860206908B16D1C05E033
:10211000AD1C03E0216815F8010B4860E08C002835
:10212000D8D14B46002240212046009700F072FF94
:1021300008B10320CCE7202084F839000020C7E74D
:102140000220C5E7FEE700000148FEF72DBF0000B2
:102150001C0000200148FEF784BF00001C00002086
:1021600010B5806B90F83D20436B002103B1D9631B
:10217000836B03B1D96303681C6824F480641C601A
:102180004185436B03B11965836B03B1196503681E
:102190001C6824F001041C6090F83D402023602C52
:1021A0000BD0282434EA02020FD080F83D3080F8AA
:1021B0003E1000BFFFF782F810BD80F83D3080F878
:1021C0003E100164FEF7EEFE10BD0268136843F096
:1021D000010313600268136843F4806313600163B2
:1021E00080F83D40E6E7000070B5044690F83D00F9
:1021F00094F83E10102906D1222804D121680A68DB
:1022000022F400620A60282131EA00024FF0000542
:102210004FF0200626D021684968090503D46028BC
:1022200001D084F83D60256384F83E502068416801
:10223000090537D5416821F400614160606B90F871
:1022400035203C49012A11D00165606BFEF75AFC2C
:1022500038B32068016821F00101016084F83D6015
:10226000606B1CE0256384F83D10DFE7A06B01651F
:10227000A06BFEF747FCA0B120684169C94349063D
:1022800005D40069616A0870606A401C6062206859
:10229000016821F00101016084F83D60A06B016DCF
:1022A000884710E094F83D10602910D04169C94377
:1022B000490605D40069616A0870606A401C606262
:1022C0002046FEF7FBFF206CC1071CD115E084F807
:1022D0003D6025644169C943490605D40069616AC6
:1022E0000870606A401C60622068016821F001018A
:1022F00001602046FEF756FEE5E7810703D441075B
:1023000001D4000704D52068416821F4E0614160F0
:1023100094F83D00216C49070BD5282809D10648BF
:10232000E062256384F83D6084F83E502046FFF764
:102330008BF870BD612100080000FFFF01684A6949
:10234000D24352050FD46FF480624A61002140F8F5
:10235000301F202242738173026942F0040202613D
:102360000173012070470020704710B5C26A438D89
:102370000168042B06D0438D032B08D0438D022B1C
:102380001DD012E04A6822F480624A600CE04B687B
:1023900023F480634B60042A06D0022A04D001682B
:1023A0000A6822F480620A6001680969426A117051
:1023B000416A491C4162418D491E418510BD012A77
:1023C00030D0102A2ED0042A30D0022A2ED00A680B
:1023D00042F400720A6001680969426A1170416A38
:1023E000491C4162428D521E4285026812690A7080
:1023F000416A491C4162418D491E418501684A6814
:1024000022F440724A60202180F83D1090F83E206E
:102410000021402A80F83E100CD012210163FFF702
:1024200014F810BD0A6822F48062D3E70A6842F407
:102430008062CFE70163FFF70AF810BD10B590F88E
:102440003D10222914D1418D032912D9016809694F
:10245000426A1170416A491C4162418D491E4185A1
:10246000418D032904D10068416821F480614160F5
:1024700010BDC26A022AFBD0012901D00029F7D180
:1024800001680A6822F480620A6001684A6822F4DE
:10249000E0624A6001680969426A1170416A491C38
:1024A0004162418D491E4185202180F83D1090F800
:1024B0003E200021402A80F83E1004D01221016302
:1024C000FEF7C3FF10BD0163FEF7C1FF10BD0000A2
:1024D00010B5C26A90F83D10212907D090F83E103F
:1024E00040290FD1BDE8104000F06AB9418D51B1CB
:1024F000416A026809781161416A491C4162418D53
:10250000491E418510BD20230021082A13D0202A0E
:1025100011D012F5803F0ED00268546824F4E064B4
:1025200054601122026380F83E1080F83D3000BFF5
:10253000FEF78CFF10BD0268546824F4E064546018
:102540000268146844F400741460016380F83D303C
:1025500090F83E2080F83E10402AE9D1FEF778FF3F
:1025600010BD000010B590F83D1090F83E30C26AE2
:10257000048DB4B1212903D0402B11D122290FD1D0
:10258000418DE1B390F83E10402942D0416A026883
:1025900009781161416A491C4162418D491E41859A
:1025A00010BD2129E8D120230021082A13D0202A98
:1025B00011D012F5803F0ED00268546824F4E06414
:1025C00054601122026380F83E1080F83D3000BF55
:1025D000FEF73CFF10BD0268546824F4E0645460C8
:1025E0000268146844F400741460016380F83D309C
:1025F00090F83E2080F83E10402AE9D100E002E049
:10260000FEF726FF10BD0068416821F4806141603B
:1026100010BDBDE8104000F0D3B8000078B590F8C8
:102620003E50C26A036B90F83D6000240168222E80
:102630007AD1066D0EB9402D76D0056D1DB90569AC
:10264000B5F5404F09D0458D05B3468D384D012E67
:102650000ED0438D022B3AD05DE04A698A69009220
:102660000A6842F480720A60016D491C016578BDF8
:10267000AA4213D10A6822F480620A6001684A689B
:10268000120503D50A6822F4806216E04A698A6955
:1026900000920A6842F400720A6039E0082A10D0F9
:1026A000202A0ED0122B0AD0042A03D0022A01D0ED
:1026B000102AE7D10A6842F480620A6024E0012A05
:1026C000E0D00A6822F480620A600168DEE7042A2A
:1026D00021D0022A1FD0102A1DD00B6823F480635A
:1026E0000B6001680B6843F400630B6001684B6882
:1026F0001B0509D5AA4212D0012A10D0082A0ED0F3
:10270000102A0CD0202A0AD001684A6989690091F0
:10271000046578BD08E00B6843F48063E5E74A6828
:1027200042F480524A60EFE7486988690090F0E718
:102730000000FFFF90F83E10402910D00169B1F56C
:10274000804F19D0016DA9B3016D012910D1416CE1
:102750005FF0F10201F4407142EAD11106E0016D2F
:102760000029416C05D0C9B241F001010068016146
:10277000704701F0FE01F9E790F83D102129416C06
:1027800009D0C9B241F0010102681161416B29B160
:10279000C96B49B902E001F0FE01F5E7816B002940
:1027A000E6D0C96B0029E3D00068416841F40061BC
:1027B00041607047FFE7416CF02201F44071CBE7C4
:1027C000016DC1B1016D012923D0016D022911D123
:1027D00090F83D10222923D090F83D10212909D1ED
:1027E000416A026809781161416A491C4162418D60
:1027F000491E41857047C16C0129816C02D0C1F32B
:10280000072108E00268C9B21161016D891C0165E8
:102810007047816CC9B202681161016D491CF6E70D
:102820000068016841F48071016070472DE9F84F3C
:102830000446006889460B9D01689846174641F496
:10284000806101602068016841F480710160009539
:102850004FF0011B0022594620460A9B00F0CEF99A
:102860004FF4007A40B120680068C00501D5C4F873
:1028700040A00320BDE8F88F216809F0FE00086140
:102880002B46284920460A9A00F0ECF9F0BB206854
:102890004169806900902A4620460A9900F060FA52
:1028A00040B1206C04283AD12068016841F40071DD
:1028B000016034E0FEB2B8F1010F09D02168380A96
:1028C00008612A4620460A9900F04AFA0028E8D111
:1028D000206806612A4620460A9900F041FA00283D
:1028E000DFD12068016841F4807101600095002209
:1028F000594620460A9B00F081F90028B3D121688F
:1029000009F0FF0040F00100086100E007E02B46FD
:10291000044920460A9A00F0A5F90028AAD001200F
:10292000A8E70000020001002DE9F8430446006812
:102930000D46DDE9089701689846164641F4807116
:1029400001604B4600224FF001112046009700F035
:1029500055F948B120680068C00502D54FF40070F1
:1029600020640320BDE8F883216805F0FE000861BB
:102970003B464A461549204600F074F988B920685C
:102980004169806900903A464946204600F0E8F9DE
:1029900048B1206C042804D12068016841F400711A
:1029A00001600120DEE7F5B2B8F1010F09D021681E
:1029B000300A08613A464946204600F0D1F900281D
:1029C000E7D1206805610020CCE70000020001008B
:1029D0002DE9F04190F83D40C26A002320261C4FAB
:1029E00001686FF48065082A01D0202A01D1282CC3
:1029F00004D0212C16D04D61BDE8F081C7624A6831
:102A000022F4E0624A6001684D6101680A6822F4BC
:102A100080620A60036380F83D6080F83E30FEF714
:102A200013FDE9E7C7622122026380F83D6080F868
:102A30003E304A6822F4E0624A6001684D610168F4
:102A40000A6822F480620A60FEF7DDFED4E7000027
:102A50000000FFFFF8B590F83D600446006841684B
:102A600021F4E0614160206800254169009101681E
:102A700041F0010101602068016821F4806101607A
:102A800020684168090520D5474F222E48D02A2EBC
:102A900046D0616B096849686185618D19B1216C07
:102AA00041F004012164416821F400614160606BE0
:102AB000FEF73AF8012808D0606B0765606BFEF7F7
:102AC00021F810B1606B016D8847608D08B32068F4
:102AD0004169C943490708D40069616A0870606A9E
:102AE000401C6062608D401E608520684169C9435A
:102AF000490608D40069616A0870606A401C606217
:102B0000608D401E6085608D18B1206C40F004001F
:102B10002064206C00B32046BDE8F840FFF764BB9A
:102B2000A16B096849686185618D19B1216C41F01B
:102B300004012164416821F400614160A06BFDF74C
:102B4000F3FF0128C1D0A06B0765A06BFDF7DAFF8A
:102B50000028BAD0A06BB6E72A2E06D1256328201C
:102B600084F83D002046FEF74DFE94F83D102020ED
:102B700028290DD0216B222901D0222E07D12563CF
:102B800084F83D0084F83E502046FEF73BFEF8BD39
:102B90000649E162256384F83D0084F83E502046F2
:102BA000FEF752FCF8BD0000612100080000FFFFA5
:102BB00070B516460D4604460DE02046FFF7BEFBF5
:102BC00008B1012070BD681C05D0FEF7E5F9801B37
:102BD000A84207D835B120684069C0434007ECD40B
:102BE000002070BD002044F8300F20216173A073D5
:102BF000216941F0200121612073E2E72DE9F047CE
:102C00001E4690460D460446C1F30747DDF8209066
:102C100008E0701C06D0FEF7BFF9A0EB0900B04237
:102C20000FD876B12068012F18D0806925EA0000FE
:102C30000004000C14D000214145EAD00020BDE87A
:102C4000F087002044F8300F20216173A0732169C0
:102C500041F02001216120730120F0E74069E5E7A0
:102C60000121E9E72DE9F0479A4691460E460446D0
:102C700000254FF02008C1F3074725E02068406990
:102C8000C043400514D42068016841F4007101601C
:102C900021686FF480604861256384F83D8084F882
:102CA0003E50206C40F00400206484F83C501FE04B
:102CB000B9F1FF3F08D0FEF76FF9A0EB0A014945D3
:102CC0000CD8B9F1000F09D02068012F13D080690A
:102CD00026EA00000004000C0BD0CFE744F8305F78
:102CE00084F80D80A573206940F0200020612573D1
:102CF0000120BDE8F0874069EAE72DE9F0410025B1
:102D000090460E460446202717E04069C043C0069F
:102D10000CD454F8301B6FF01000486144F810597F
:102D20006777A577206A2062257717E0FEF734F9E8
:102D3000A0EB0800B04208D83EB120684169C94301
:102D40004906E2D40020BDE8F08144F8305F6773A3
:102D5000A573206940F02000206125730120F2E76F
:102D600070B516460D4604460DE02046FFF7E6FA1C
:102D700008B1012070BD681C05D0FEF70DF9801B5D
:102D8000A84207D835B120684069C0430006ECD49A
:102D9000002070BD002044F8300F20216173A07323
:102DA000216941F0200121612073E2E770B586B00E
:102DB00014216846FDF73CFA1A480024016841F0E6
:102DC00080010160016801F080010591016841F016
:102DD00001010160016801F001010591016841F004
:102DE00008010160016801F008010591016841F0E6
:102DF0000201016000680C4E00F002004FF48055A3
:102E00000590002229463046FEF7C1F801200095C2
:102E1000CDE90104694630460394FDF7D5FF06B0BD
:102E200070BD000030380240000C0240FEE7FEE7B3
:102E300070477047FEF7E8BC30B593B03021684664
:102E4000FDF7F6F914210CA8FDF7F2F91E4800254C
:102E5000016841F080510160006800F080501190DD
:102E60001A48016841F4804101600068022400F4BE
:102E70008040119001200090000401908001CDE974
:102E80000640082008904FF4A870CDE909040420FA
:102E90000B906846FEF73CFE08B172B6FEE70CA93F
:102EA0000F2081E831004FF4A0500F904FF4805074
:102EB000109005210CA8FEF741FD002801D072B644
:102EC000FEE713B030BD0000403802400070004003
:102ED0000548016841F47001016003494FF000604A
:102EE000803908607047000088ED00E02DE9F0416E
:102EF000044600680169E26821F440511143016110
:102F00002169A068E26908436169114308432168A7
:102F1000CA6849F20C639A430243CA602068416957
:102F2000A26921F4407111434161E06919276425C8
:102F30003226B0F5004F354A354920684FF0000879
:102F400006D0884201D0904236D1FEF7A1FD35E08F
:102F5000884201D0904202D1FEF79AFD01E0FEF7CF
:102F600087FD61684A18A0FB070148EB0803FDF7DD
:102F700027F90146B0FBF5F00201B1FBF5F06FF067
:102F80001803584301EB800006EBC000B0FBF5F0DE
:102F900000F0F80002EB4002B1FBF5F0584301EB02
:102FA000800006EBC000B0FBF5F000F007002168E0
:102FB00010448860BDE8F081FEF75AFD61688B0F10
:102FC0008A00A0FB0701FDF7FBF80146B0FBF5F016
:102FD0006FF01802504301EB800006EB0010B0FBCD
:102FE000F5F000F0F002B1FBF5F002EB0012B1FBDE
:102FF000F5F06FF01803584301EB800006EB00106A
:10300000B0FBF5F000F00F00D1E700000014014024
:10301000001001402DE9F041984617460E4604463F
:10302000069D1DE0681C1BD02DB1FDF7B5FFA0EB80
:103030000800A84214D92068C16821F4D071C16089
:103040002068416921F001014161202084F83900A4
:1030500084F83A00002084F838000320BDE8F081AD
:103060002068006836EA000004D00020B842D9D0B9
:103070000020F3E70120F9E7FEE70907090E002821
:1030800004DB00F1E02080F80014704700F00F002E
:1030900000F1E02080F8141D7047000000487047E0
:1030A000180000200000000070B5D94B00242DED61
:1030B000020B2DED108BDDE91010984205DA20F09F
:1030C00000429A4201D809D141B19DED100BBDECEF
:1030D000108B02B0BDE8704000F05EBAB0F5801F02
:1030E00026DA11430BD0002813DA012000F080FA11
:1030F000BDEC108B02B0BDE8704000F059BA022060
:1031000000F076FA00F030FA51EC100B81F000413B
:103110009EE06FF035049FEDC00B53EC102B9DED3E
:10312000100B51EC100BFDF7CAFACDE9100108465F
:1031300004EB2051C0F31304B948A1F2FF3120443D
:1031400000F4801080F07F6282F04052224301EB55
:1031500020559FEDB50B119253EC102B9DED100BEC
:1031600051EC100BFDF7A5FA41EC180BA01CC0F3B5
:1031700013009FEDAFDB9FEDB0EBB14E7E44032813
:103180006CD296ED000B51EC180B53EC102BFDF7A5
:1031900019FB1DD1002D01BF96ED000BBDEC108B6E
:1031A00002B070BD2846FDF7FCFA41EC180B53EC59
:1031B0001D2BFDF784FA41EC190B53EC1E2B51EC3F
:1031C000180BFDF77CFA53EC192BFDF7D1F93FE012
:1031D0009FED9D0B51EC180B53EC102BFDF76FFA84
:1031E0009FED9B1B53EC112BFDF766FA41EC190B7D
:1031F00053EC182B51EC180BFDF761FA53EC192B1B
:10320000FDF75DFA41EC190B002D04BF53EC192BAF
:1032100051EC180B1AD02846FDF7C3FA41EC1A0BF3
:1032200053EC1D2BFDF74BFA53EC192BFDF744FA29
:1032300053EC182BFDF73DFA41EC180B53EC1E2B09
:1032400051EC1A0BFDF73BFA53EC182BFDF731FA52
:10325000BDEC108B02B041EC100B70BD9FED7E0BEE
:1032600051EC180B53EC102BFDF782F941EC100BCD
:1032700051EC180B53EC102BFDF71DF841EC190B1A
:103280002846FDF78EFA41EC1B0B53EC192B51EC41
:10329000190BFDF714FA41EC1A0B714853EC1A2B79
:1032A000261851EC1A0BFDF70AFA41EC1F0B6D487A
:1032B000C4F1510404F5D724B0EE4F0AF0EE6F0AC2
:1032C0000321784400F0D2F853EC1F2B51EC100B83
:1032D000FDF7F5F941EC1C0B6348B0EE4F0AF0EE38
:1032E0006F0A0421784400F0C1F853EC1A2B51EC1A
:1032F000100BFDF7E4F9344353EC1C2BFDF738F9C0
:1033000041EC1C0B002C4CDD9FED510B51EC180BCC
:1033100053EC102BFDF7D3F953EC182BFDF7CFF935
:1033200041EC1A0B55B353EC1D2B51EC1B0BFDF765
:10333000C6F941EC1D0B53EC1C2B51EC1A0BFDF79D
:1033400017F953EC192BFDF7BAF953EC1D2BFDF7C8
:103350000FF953EC1A2BFDF7AFF953EC182BFDF7CF
:10336000A8F941EC180B53EC1E2B51EC1B0BFDF78D
:10337000A6F953EC182BFDF79CF969E753EC1C2BCD
:1033800051EC1A0BFDF7F4F853EC192BFDF797F9F4
:1033900053EC1A2BFDF790F953EC182BFDF78CF931
:1033A00056E735B353EC1D2B51EC1B0BFDF787F99A
:1033B00041EC1A0B53EC1C2B51EC180BFDF779F96F
:1033C00053EC192BFDF77BF953EC1A2BFDF771F930
:1033D00053EC182BFDF76DF941EC180B53EC1E2B39
:1033E00051EC1B0BFDF76BF953EC182BFDF761F952
:1033F0002EE753EC1C2B51EC180BFDF75AF953EC4C
:10340000192BFDF75CF953EC182BFDF755F91FE765
:103410000000F07F000000000000000000005043AA
:10342000645F090000000000000000000000F03FA1
:10343000763C7935EF39EA3D0000E0FE422EE63F6A
:103440008807000000000000555555555555D53FDB
:10345000000000000000E03F00000000000000400D
:1034600086EBF9FF0A0600000006000070B504466E
:103470002DED028B4D1E00EBC500B0EE408AF0EE44
:10348000608A90ED000B35F0060017D053EC182B36
:1034900051EC100BFDF713F941EC100B6D1E04EB12
:1034A000C50090ED001B51EC100B53EC112BFDF7F8
:1034B0005FF841EC100B35F00600E7D1022D36D055
:1034C000042D1CD0062D1CBFBDEC028B70BD53EC2F
:1034D000182B51EC100BFDF7F2F894ED0A1B53EC8E
:1034E000112BFDF745F853EC182BFDF7E8F894ED98
:1034F000081B53EC112BFDF73BF841EC100B53EC80
:10350000182B51EC100BFDF7DAF894ED061B53EC79
:10351000112BFDF72DF853EC182BFDF7D0F894ED97
:10352000040B53EC102BFDF723F841EC100B53EC7C
:10353000182B51EC100BFDF7C2F894ED021B53EC65
:10354000112BFDF715F853EC182BFDF7B8F894ED97
:10355000001B53EC112BFDF70BF8BDEC028B41EC7B
:10356000100B70BD000000009FED070B10B553EC71
:10357000102B9FED070B51EC100BFCF79CFE41EC60
:10358000100B10BD00000000000000000000000053
:10359000000000000000F03F10B553EC102B51EC80
:1035A000100BFCF7E5FF41EC100B10BD0000000014
:1035B0009FED050B10B553EC102B51EC100BFCF7E5
:1035C0007AFE41EC100B10BD00000000000000006E
:1035D00002E008C8121F08C1002AFAD170477047DC
:1035E000002001E001C1121F002AFBD1704700003A
:1035F0000149086070470000180000204218402A66
:1036000002D3C1F1400080B2704770B506460C4647
:10361000084600F017F90546002202E0B05CA85405
:10362000521CA242FADB102200212846FCF70BFEB6
:1036300084B2284600F002F8204670BD10B500287C
:1036400021D0114B0022001F196803E0814203D8EA
:103650000A4649680029F9D152B11368841A9C427C
:1036600004D1006818441060104602E0506000E089
:10367000186039B102680B1A934203D10B681A44DF
:1036800002604968416010BD1000002008B5FEF7D7
:10369000C3F8FFF7D1FBFFF789FB644800240168FA
:1036A00041F4001101600068224600F4001000900F
:1036B00021461020FEF710F91020FEF7FFF8002237
:1036C00011461120FEF708F91120FEF7F7F85948C6
:1036D000574901605849C0E901144FF48041C0E9DD
:1036E000034144618461C4610462FDF7E9FD08B1EE
:1036F00072B6FEE74F485149543001604FF4E13152
:10370000C0E901140C21C460C0E904418461C461B2
:10371000FEF7C0FB474CDFF8289194344FF48058F3
:1037200008B172B6FEE74349642394310822A1F13F
:103730004000FEF74BFC50BB2078722827D1414651
:103740004846FDF71DFC0321601CFFF75EFF824623
:103750000221201DFFF759FF05460221A01DFFF79A
:1037600054FF0646401C00F06DF8074602463346FB
:1037700029465046FDF700F92E4842F210733246B2
:1037800039465430FEF781FC3846FFF757FF294988
:10379000642394310922A1F14000FEF717FC48BBD5
:1037A0002078772826D141464846FDF7E9FB0321DA
:1037B000601CFFF72AFF83460221201DFFF725FF2B
:1037C00082460221A01DFFF720FF0546277A401CF4
:1037D00000F038F80646002001E03754401CA842AB
:1037E000FBDB2B46324651465846FDF725F930465D
:1037F000FFF724FF0F49642394310122A1F1400017
:10380000FEF7E4FB00288ED1207863288BD1414657
:103810004846FDF7B5FB00254FF40076A8B2FDF74A
:1038200069F86D1CB542F9DB7DE7000030380240D5
:10383000005400401C000020801A06000044004094
:10384000000C0240F0B50B30154D20F007010024AC
:10385000144A0FE003688B420BD38B4205D95E1AE2
:1038600043184768C3E9006700E04368136002C07B
:1038700004E0021D10680028ECD12046002802D187
:10388000286808B10020F0BD064A07481060074AC2
:10389000121A22F00702C0E9002401202860D7E7AD
:1038A0001400002010000020DC010020D8030020BC
:1038B00000061016000610160000000000000000B0
:1038C00001020304060708090000000001020304C6
:1038D00004FA97999999D93FAF788E1DC571CC3F5D
:1038E0009FC678D0099AC33F935555555555E53F26
:1038F000599322942449D23FDE03CB966446C73FB6
:1039000044523EDF12F1C23F000000000000000000
:1039100000404040404040404040414141414140E2
:103920004040404040404040404040404040404097
:103930004005020202020202020202020202020226
:10394000022020202020202020202002020202022B
:103950000202909090909090101010101010101083
:10396000101010101010101010101010020202028F
:1039700002028888888888880808080808080808D3
:1039800008080808080808080808080802020202CF
:103990004000000011390008B8390008000000207C
:1039A0001C000000D0350008D43900081C0000209D
:1039B000BC070000E0350008010000001000000016
:1039C000000000000024F4000000000000000000DF
:0439D00000000000F3
:040000050800018965
:00000001FF
